{
  "contractName": "SubsidyDistribution",
  "abi": [
    {
      "inputs": [],
      "stateMutability": "nonpayable",
      "type": "constructor"
    },
    {
      "inputs": [
        {
          "internalType": "address",
          "name": "",
          "type": "address"
        }
      ],
      "name": "beneficiaries",
      "outputs": [
        {
          "internalType": "address payable",
          "name": "beneficiaryAddress",
          "type": "address"
        },
        {
          "internalType": "uint256",
          "name": "amount",
          "type": "uint256"
        },
        {
          "internalType": "bool",
          "name": "paid",
          "type": "bool"
        },
        {
          "internalType": "bool",
          "name": "eligible",
          "type": "bool"
        }
      ],
      "stateMutability": "view",
      "type": "function"
    },
    {
      "inputs": [],
      "name": "government",
      "outputs": [
        {
          "internalType": "address",
          "name": "",
          "type": "address"
        }
      ],
      "stateMutability": "view",
      "type": "function"
    },
    {
      "inputs": [],
      "name": "totalFunds",
      "outputs": [
        {
          "internalType": "uint256",
          "name": "",
          "type": "uint256"
        }
      ],
      "stateMutability": "view",
      "type": "function"
    },
    {
      "stateMutability": "payable",
      "type": "receive"
    },
    {
      "inputs": [
        {
          "internalType": "address payable",
          "name": "_address",
          "type": "address"
        },
        {
          "internalType": "uint256",
          "name": "_amount",
          "type": "uint256"
        }
      ],
      "name": "addBeneficiary",
      "outputs": [],
      "stateMutability": "nonpayable",
      "type": "function"
    },
    {
      "inputs": [
        {
          "internalType": "address",
          "name": "_address",
          "type": "address"
        },
        {
          "internalType": "bool",
          "name": "_eligibility",
          "type": "bool"
        }
      ],
      "name": "verifyEligibility",
      "outputs": [],
      "stateMutability": "nonpayable",
      "type": "function"
    },
    {
      "inputs": [
        {
          "internalType": "address payable",
          "name": "_address",
          "type": "address"
        }
      ],
      "name": "releaseFunds",
      "outputs": [],
      "stateMutability": "nonpayable",
      "type": "function"
    }
  ],
  "bytecode": "0x608060405234801561001057600080fd5b5033600160006101000a81548173ffffffffffffffffffffffffffffffffffffffff021916908373ffffffffffffffffffffffffffffffffffffffff160217905550610bd8806100616000396000f3fe6080604052600436106100595760003560e01c8063015677391461007e578063192e7a7b146100be5780632672f526146100e757806396074e7014610112578063968ed6001461013b578063af2ead5d1461016657610079565b366100795734600260008282546100709190610a67565b92505081905550005b600080fd5b34801561008a57600080fd5b506100a560048036038101906100a09190610755565b61018f565b6040516100b59493929190610976565b60405180910390f35b3480156100ca57600080fd5b506100e560048036038101906100e0919061077e565b6101f9565b005b3480156100f357600080fd5b506100fc610445565b604051610109919061095b565b60405180910390f35b34801561011e57600080fd5b50610139600480360381019061013491906107a7565b61046b565b005b34801561014757600080fd5b5061015061060e565b60405161015d9190610a3b565b60405180910390f35b34801561017257600080fd5b5061018d600480360381019061018891906107e3565b610614565b005b60006020528060005260406000206000915090508060000160009054906101000a900473ffffffffffffffffffffffffffffffffffffffff16908060010154908060020160009054906101000a900460ff16908060020160019054906101000a900460ff16905084565b600160009054906101000a900473ffffffffffffffffffffffffffffffffffffffff1673ffffffffffffffffffffffffffffffffffffffff163373ffffffffffffffffffffffffffffffffffffffff1614610289576040517f08c379a000000000000000000000000000000000000000000000000000000000815260040161028090610a1b565b60405180910390fd5b60008060008373ffffffffffffffffffffffffffffffffffffffff1673ffffffffffffffffffffffffffffffffffffffff16815260200190815260200160002090508060020160019054906101000a900460ff1661031c576040517f08c379a0000000000000000000000000000000000000000000000000000000008152600401610313906109db565b60405180910390fd5b8060020160009054906101000a900460ff161561036e576040517f08c379a0000000000000000000000000000000000000000000000000000000008152600401610365906109bb565b60405180910390fd5b80600101544710156103b5576040517f08c379a00000000000000000000000000000000000000000000000000000000081526004016103ac906109fb565b60405180910390fd5b60018160020160006101000a81548160ff0219169083151502179055508060000160009054906101000a900473ffffffffffffffffffffffffffffffffffffffff1673ffffffffffffffffffffffffffffffffffffffff166108fc82600101549081150290604051600060405180830381858888f19350505050158015610440573d6000803e3d6000fd5b505050565b600160009054906101000a900473ffffffffffffffffffffffffffffffffffffffff1681565b600160009054906101000a900473ffffffffffffffffffffffffffffffffffffffff1673ffffffffffffffffffffffffffffffffffffffff163373ffffffffffffffffffffffffffffffffffffffff16146104fb576040517f08c379a00000000000000000000000000000000000000000000000000000000081526004016104f290610a1b565b60405180910390fd5b60405180608001604052808373ffffffffffffffffffffffffffffffffffffffff168152602001828152602001600015158152602001600015158152506000808473ffffffffffffffffffffffffffffffffffffffff1673ffffffffffffffffffffffffffffffffffffffff16815260200190815260200160002060008201518160000160006101000a81548173ffffffffffffffffffffffffffffffffffffffff021916908373ffffffffffffffffffffffffffffffffffffffff1602179055506020820151816001015560408201518160020160006101000a81548160ff02191690831515021790555060608201518160020160016101000a81548160ff0219169083151502179055509050505050565b60025481565b600160009054906101000a900473ffffffffffffffffffffffffffffffffffffffff1673ffffffffffffffffffffffffffffffffffffffff163373ffffffffffffffffffffffffffffffffffffffff16146106a4576040517f08c379a000000000000000000000000000000000000000000000000000000000815260040161069b90610a1b565b60405180910390fd5b806000808473ffffffffffffffffffffffffffffffffffffffff1673ffffffffffffffffffffffffffffffffffffffff16815260200190815260200160002060020160016101000a81548160ff0219169083151502179055505050565b60008135905061071081610b46565b92915050565b60008135905061072581610b5d565b92915050565b60008135905061073a81610b74565b92915050565b60008135905061074f81610b8b565b92915050565b60006020828403121561076757600080fd5b600061077584828501610701565b91505092915050565b60006020828403121561079057600080fd5b600061079e84828501610716565b91505092915050565b600080604083850312156107ba57600080fd5b60006107c885828601610716565b92505060206107d985828601610740565b9150509250929050565b600080604083850312156107f657600080fd5b600061080485828601610701565b92505060206108158582860161072b565b9150509250929050565b61082881610acf565b82525050565b61083781610abd565b82525050565b61084681610ae1565b82525050565b6000610859600c83610a56565b91507f416c7265616479207061696400000000000000000000000000000000000000006000830152602082019050919050565b6000610899600c83610a56565b91507f4e6f7420656c696769626c6500000000000000000000000000000000000000006000830152602082019050919050565b60006108d9601283610a56565b91507f496e73756666696369656e742066756e647300000000000000000000000000006000830152602082019050919050565b6000610919600e83610a56565b91507f4e6f7420617574686f72697a65640000000000000000000000000000000000006000830152602082019050919050565b61095581610b0d565b82525050565b6000602082019050610970600083018461082e565b92915050565b600060808201905061098b600083018761081f565b610998602083018661094c565b6109a5604083018561083d565b6109b2606083018461083d565b95945050505050565b600060208201905081810360008301526109d48161084c565b9050919050565b600060208201905081810360008301526109f48161088c565b9050919050565b60006020820190508181036000830152610a14816108cc565b9050919050565b60006020820190508181036000830152610a348161090c565b9050919050565b6000602082019050610a50600083018461094c565b92915050565b600082825260208201905092915050565b6000610a7282610b0d565b9150610a7d83610b0d565b9250827fffffffffffffffffffffffffffffffffffffffffffffffffffffffffffffffff03821115610ab257610ab1610b17565b5b828201905092915050565b6000610ac882610aed565b9050919050565b6000610ada82610aed565b9050919050565b60008115159050919050565b600073ffffffffffffffffffffffffffffffffffffffff82169050919050565b6000819050919050565b7f4e487b7100000000000000000000000000000000000000000000000000000000600052601160045260246000fd5b610b4f81610abd565b8114610b5a57600080fd5b50565b610b6681610acf565b8114610b7157600080fd5b50565b610b7d81610ae1565b8114610b8857600080fd5b50565b610b9481610b0d565b8114610b9f57600080fd5b5056fea26469706673582212204d703a82faae069970306968f44ba54f301a122177381ec3477dc22dd3a1997864736f6c63430008000033",
  "immutableReferences": {},
  "source": "// SPDX-License-Identifier: MIT\r\npragma solidity ^0.8.0;\r\n\r\ncontract SubsidyDistribution {\r\n    struct Beneficiary {\r\n        address payable beneficiaryAddress;\r\n        uint amount;\r\n        bool paid;\r\n        bool eligible;\r\n    }\r\n\r\n    mapping(address => Beneficiary) public beneficiaries;\r\n    address public government;\r\n    uint public totalFunds;\r\n\r\n    modifier onlyGovernment() {\r\n        require(msg.sender == government, \"Not authorized\");\r\n        _;\r\n    }\r\n\r\n    constructor() {\r\n        government = msg.sender;\r\n    }\r\n\r\n    function addBeneficiary(address payable _address, uint _amount) public onlyGovernment {\r\n        beneficiaries[_address] = Beneficiary(_address, _amount, false, false);\r\n    }\r\n\r\n    function verifyEligibility(address _address, bool _eligibility) public onlyGovernment {\r\n        beneficiaries[_address].eligible = _eligibility;\r\n    }\r\n\r\n    function releaseFunds(address payable _address) public onlyGovernment {\r\n        Beneficiary storage beneficiary = beneficiaries[_address];\r\n        require(beneficiary.eligible, \"Not eligible\");\r\n        require(!beneficiary.paid, \"Already paid\");\r\n        require(address(this).balance >= beneficiary.amount, \"Insufficient funds\");\r\n\r\n        beneficiary.paid = true;\r\n        beneficiary.beneficiaryAddress.transfer(beneficiary.amount);\r\n    }\r\n\r\n    receive() external payable {\r\n        totalFunds += msg.value;\r\n    }\r\n}\r\n",
  "sourcePath": "C:\\Users\\rajee\\OneDrive\\Desktop\\Subsidy Project\\backend\\contracts\\SubsidyDistribution.sol",
  "compiler": {
    "name": "solc",
    "version": "0.8.0+commit.c7dfd78e.Emscripten.clang"
  },
  "schemaVersion": "3.4.16",
  "updatedAt": "2024-10-07T19:23:18.711Z",
  "devdoc": {
    "kind": "dev",
    "methods": {},
    "version": 1
  },
  "userdoc": {
    "kind": "user",
    "methods": {},
    "version": 1
  }
}